:100000000C9462000C948A000C948A000C948A0070
:100010000C948A000C948A000C948A000C948A0038
:100020000C948A000C948A000C948A000C948A0028
:100030000C948A000C948A000C9458080C948A0042
:100040000C94EF060C948A000C94BD060C94970651
:100050000C948A000C948A000C948A000C948A00F8
:100060000C9439070C948A0000000000240027003B
:100070002A0000000000250028002B0000000000DE
:1000800023002600290004040404040404040202DA
:100090000202020203030303030301020408102007
:1000A0004080010204081020010204081020000012
:1000B0000008000201000003040700000000000027
:1000C0000000DE0811241FBECFEFD8E0DEBFCDBF99
:1000D00013E0A0E0B1E0E6EEF5E202C005900D927B
:1000E000AE33B107D9F725E0AEE3B3E001C01D920E
:1000F000A930B207E1F710E0C2E6D0E004C02197D2
:10010000FE010E94EB12C136D107C9F70E944709D0
:100110000C94F1120C94000008950895AF92BF92D0
:10012000CF92DF92EF92FF920F931F93CF93DF93C3
:100130006C017B018B01040F151FEB015E01AE18F2
:10014000BF08C017D10759F06991D601ED91FC9114
:100150000190F081E02DC6010995892B79F7C50141
:10016000DF91CF911F910F91FF90EF90DF90CF9093
:10017000BF90AF900895FC01538D448D252F30E042
:10018000842F90E0821B930B541710F0CF960895A4
:1001900001970895FC01918D828D981761F0A28DD1
:1001A000AE0FBF2FB11D5D968C91928D9F5F9F7397
:1001B000928F90E008958FEF9FEF0895FC01918D4D
:1001C000828D981731F0828DE80FF11D858D90E0BA
:1001D00008958FEF9FEF0895FC01918D228D892F57
:1001E00090E0805C9F4F821B91098F73992708953F
:1001F00080E494E00E94EC0021E0892B09F420E0E7
:10020000822F089580E090E0892B29F00E94F80069
:1002100081110C9400000895FC01A48DA80FB92F42
:10022000B11DA35ABF4F2C91848D90E001968F731E
:100230009927848FA689B7892C93A089B1898C913D
:10024000837080648C93938D848D981306C002888C
:10025000F389E02D80818F7D80830895EF92FF9256
:100260000F931F93CF93DF93EC0181E0888F9B8DD9
:100270008C8D98131AC0E889F989808185FF15C093
:100280009FB7F894EE89FF896083E889F9898081B6
:100290008370806480839FBF81E090E0DF91CF9185
:1002A0001F910F91FF90EF900895F62E0B8D10E0A7
:1002B0000F5F1F4F0F731127E02E8C8D8E110CC016
:1002C0000FB607FCFACFE889F989808185FFF5CF61
:1002D000CE010E940C01F1CFEB8DEC0FFD2FF11D33
:1002E000E35AFF4FF0829FB7F8940B8FEA89FB899E
:1002F00080818062CFCFCF93DF93EC01888D8823FC
:10030000B9F0AA89BB89E889F9898C9185FD03C078
:10031000808186FD0DC00FB607FCF7CF8C9185FF5D
:10032000F2CF808185FFEDCFCE010E940C01E9CF95
:10033000DF91CF910895833081F028F4813099F0D6
:100340008230A9F008958730A9F08830C9F0843050
:10035000B1F4809180008F7D03C0809180008F7701
:1003600080938000089584B58F7784BD089584B507
:100370008F7DFBCF8091B0008F778093B000089580
:100380008091B0008F7DF9CFCF93DF93E0EBF0E069
:100390008491ECE9F0E0D491E8E8F0E0C491CC235A
:1003A000A1F081110E949B01EC2FF0E0EE0FFF1FE6
:1003B000E458FF4FA591B491EC91ED2381E090E0DA
:1003C00009F480E0DF91CF91089580E090E0FACFCA
:1003D0001F93CF93DF93282F30E0F901E255FF4FB1
:1003E0008491F901E656FF4FD491F901EA57FF4F86
:1003F000C491CC23A9F0162F81110E949B01EC2FF0
:10040000F0E0EE0FFF1FEE58FF4FA591B4918FB7AC
:10041000F894EC91111108C0D095DE23DC938FBFC6
:10042000DF91CF911F910895DE2BF8CFCF93DF930B
:1004300090E0FC01E656FF4F24918A579F4FFC0144
:1004400084918823D1F090E0880F991FFC01E8592E
:10045000FF4FA591B491FC01EE58FF4FC591D49187
:1004600061110EC09FB7F8948C91E22FE0958E2316
:100470008C932881E223E8839FBFDF91CF91089579
:100480008FB7F894EC91E22BEC938FBFF6CF8E30C0
:1004900008F08E508770806480937C0080917A0091
:1004A000806480937A0080917A0086FDFCCF8091F1
:1004B00078009091790008953FB7F8948091F903FE
:1004C0009091FA03A091FB03B091FC0326B5A89B81
:1004D00005C02F3F19F00196A11DB11D3FBFBA2FD6
:1004E000A92F982F8827BC01CD01620F711D811D96
:1004F000911D42E0660F771F881F991F4A95D1F71B
:1005000008958F929F92AF92BF92CF92DF92EF9217
:10051000FF924B015C010E945C026B017C010E9416
:100520005C026C197D098E099F09683E7340810544
:100530009105A8F321E0821A9108A108B10888EE7C
:10054000C80E83E0D81EE11CF11C81149104A104A3
:10055000B10429F7FF90EF90DF90CF90BF90AF905C
:100560009F908F90089520918703260F3327331F84
:1005700021323105ECF42091D003FC0190E080E0C1
:10058000243069F082E00895A09187032191AC01A5
:1005900049595C4FA40FB52FB11D2C9301968617B6
:1005A00098F380918703680F6093870380E0089534
:1005B00081E008951092D00381E08093CF031092E0
:1005C000AA0361E082E10E94E80161E083E10E9408
:1005D000E801E9EBF0E080818E7F808380818D7F70
:1005E000808388E48093B80085E48093BC000895FC
:1005F000CF93DF9391E0909366038823B9F0C09185
:10060000B800D091BA008091BC008A7B8093BC0076
:1006100060E082E10E94E80160E083E10E94E8017D
:100620000E94DA02D093BA00C093B800DF91CF9154
:1006300008950895E091040480910304E81730F4CC
:10064000F0E0EA5BFC4F808190E008958FEF9FEF30
:10065000089590910404809103042FEF3FEF9817C1
:1006600048F4E92FF0E0EA5BFC4F208130E09F5F27
:1006700090930404C90108958091030490910404A7
:10068000891B990B0895CF92DF92EF92FF920F93FF
:100690001F93CF93DF937C01CB018A012091D60376
:1006A000222389F0EB016B01C40ED51ECC15DD05AC
:1006B00069F06991D701ED91FC910190F081E02DF5
:1006C000C7010995F3CF642F0E94B302C801DF91DF
:1006D000CF911F910F91FF90EF90DF90CF900895F1
:1006E000CF93DF931F92CDB7DEB769832091D603F6
:1006F0002223F9F020910104203258F021E030E06B
:10070000FC013383228390E080E00F90DF91CF9152
:10071000089580910204E82FF0E0E952FC4F99819E
:1007200090838F5F809302048093010481E090E0C6
:10073000ECCF61E0CE0101960E94B302F7CFCF92D9
:10074000DF92EF92FF920F931F93CF93DF93FC0101
:10075000C48121E02093D603C093F70310920204D2
:10076000109201048385682B8DED94E00E94700344
:10077000D0910104D13208F092C00E945C026B015A
:100780007C018091D003811165C082E08093D00309
:1007900081E08093CF038FEF8093CE031092CD033F
:1007A000D093CC03A7EDB3E0ECEAF3E080E0D813FC
:1007B00085C01092AB038091AB03CC0FC82BC093C4
:1007C000AB038091AA03813009F07CC01092AA0388
:1007D0000E945C026B017C018091AB038093BB00A3
:1007E0008091D2039091D303A091D403B091D5030B
:1007F000892B8A2B8B2B99F00E945C020091D203EB
:100800001091D3032091D4033091D5036C197D0945
:100810008E099F090617170728073907E0F180910D
:10082000BC0083FDD9CF85EC8093BC000E945C02A4
:100830006B017C018091D003823009F445C0809126
:10084000CE038F3F61F18091CE03803241F18091E0
:10085000CE0325C08091D2039091D303A091D403FD
:10086000B091D503892B8A2B8B2B09F48ACF0E9458
:100870005C020091D2031091D3032091D4033091F4
:10088000D5036C197D098E099F09061717072807DC
:10089000390708F076CF8091D1030E94F8021092B8
:1008A0000204109201041092D603DF91CF911F91A0
:1008B0000F91FF90EF90DF90CF9008959D919193CD
:1008C0008F5F75CF85EEB0CF8091D2039091D30327
:1008D000A091D403B091D503892B8A2B8B2B09F4DB
:1008E000A9CF0E945C020091D2031091D303209102
:1008F000D4033091D5036C197D098E099F09061721
:1009000017072807390708F095CFC5CF089590E05D
:1009100080E008950F931F93CF938C01C62F0E9400
:100920009F036C2F6460C8010E949F036C2F6B7F34
:10093000C8010E949F0383EC90E00197F1F7CF91EB
:100940001F910F9108950F931F93CF93DF938C0105
:10095000D62FC42F607F642B0E948A0480E1D89F29
:10096000B00111246C2BC801DF91CF911F910F9121
:100970000C948A0440E061E08DEE94E00E94A304B0
:100980008BE39FE10197F1F70895CF93DF93CDB704
:10099000DEB728970FB6F894DEBF0FBECDBF98E044
:1009A000E0E0F1E0DE01119601900D929A95E1F7F9
:1009B0009091F504961708F46FEF262F30E0220F80
:1009C000331F41E050E04C0F5D1F240F351FF9012C
:1009D0006081680F606840E08DEE94E028960FB665
:1009E000F894DEBF0FBECDBFDF91CF910C94A3046E
:1009F00041E00E94A30481E090E00895FB01019092
:100A00000020E9F73197AF01461B570BDC01ED9150
:100A1000FC910280F381E02D09948F929F92AF9216
:100A2000BF92EF92FF920F931F93CF93DF93CDB7B7
:100A3000DEB7A1970FB6F894DEBF0FBECDBF7C0125
:100A4000FA01CB0119A2223008F42AE08E010F5DD1
:100A50001F4F822E912CB12CA12CBF01A501940116
:100A60000E94C912F901CA016A300CF5605DD80113
:100A70006E938D01232B242B252B79F790E080E0BA
:100A8000109721F0BD01C7010E94FE04A1960FB688
:100A9000F894DEBF0FBECDBFDF91CF911F910F91B4
:100AA000FF90EF90BF90AF909F908F900895695CFA
:100AB000DECFCF93DF93BC0180E494E00E94FE047C
:100AC000EC0168E371E080E494E00E94FE048C0F86
:100AD0009D1FDF91CF9108952F923F924F925F9289
:100AE0006F927F928F929F92AF92BF92CF92DF923E
:100AF000EF92FF921F93CF93DF93EC016A017B018A
:100B0000722EAB019601CB01B6010E94AF126BE3CE
:100B100071E0811126C046015701E894B7F82FEF24
:100B20003FEF4FE75FE7C501B4010E94AF128111AB
:100B30000CC02FEF3FEF4FE75FE7C501B4010E9404
:100B40009F106FE371E0181664F02FEF3FEF4FE74F
:100B50005FE4C701B6010E94F7111816B4F463E40C
:100B600071E0CE01DF91CF911F91FF90EF90DF9068
:100B7000CF90BF90AF909F908F907F906F905F903D
:100B80004F903F902F900C94FE042FEF3FEF4FE7D4
:100B90005FECC701B6010E949F1087FDE0CF20E007
:100BA00030E0A901C701B6010E949F10312C212C11
:100BB00087FF0DC0E881F9810190F081E02D6DE2A1
:100BC000CE0109951C01F7FAF094F7F8F09410E0C3
:100BD00060E070E080E09FE3711641F020E030E0DB
:100BE00040E251E40E94A4101F5FF6CFA7019601D6
:100BF0000E9433102B013C010E9416114B015C0135
:100C00002AE0BC01A401CE010E940D057C01E20C8A
:100C1000F31C1123E1F1C501B4010E9445119B01B0
:100C2000AC01C301B2010E9432104B015C01E881AA
:100C3000F9810190F081E02D6EE2CE010995E80E78
:100C4000F91E115020F120E030E040E251E4C501EE
:100C5000B4010E94FC112B013C010E9416114B01B2
:100C6000B12CA12C2AE0B501A401CE010E940D05F2
:100C7000E80EF91EC501B4010E9445119B01AC01AB
:100C8000C301B2010E9432104B015C01DACFC701EF
:100C9000DF91CF911F91FF90EF90DF90CF90BF90A9
:100CA000AF909F908F907F906F905F904F903F900C
:100CB0002F90089522E00C946C050C94FE0485EDB1
:100CC0008093BC008091D2039091D303A091D40370
:100CD000B091D5030796A11DB11D23E0B695A79548
:100CE000979587952A95D1F72091BC0024FD03C0E4
:100CF0001092D00308954091D2035091D303609194
:100D0000D4037091D503452B462B472B69F30097ED
:100D1000A105B10541F025E32A95F1F700000197FF
:100D2000A109B109E1CF8091D1030C94F8021F927F
:100D30000F920FB60F9211242F933F934F935F930F
:100D40006F937F938F939F93AF93BF93EF93FF9393
:100D500080E494E00E940C01FF91EF91BF91AF916C
:100D60009F918F917F916F915F914F913F912F91C3
:100D70000F900FBE0F901F9018951F920F920FB6F5
:100D80000F9211242F938F939F93EF93FF93E091F2
:100D90005004F09151048081E0915604F091570481
:100DA00082FD1BC09081809159048F5F8F732091C9
:100DB0005A04821741F0E0915904F0E0E05CFB4FE7
:100DC000958F80935904FF91EF919F918F912F916F
:100DD0000F900FBE0F901F9018958081F4CF1F9237
:100DE0000F920FB60F9211242F933F938F939F93DF
:100DF000AF93BF938091E9049091EA04A091EB0432
:100E0000B091EC043091F80323E0230F2D3758F50F
:100E10000196A11DB11D2093F8038093E9049093DE
:100E2000EA04A093EB04B093EC048091F903909151
:100E3000FA03A091FB03B091FC030196A11DB11D23
:100E40008093F9039093FA03A093FB03B093FC0300
:100E5000BF91AF919F918F913F912F910F900FBEB6
:100E60000F901F90189526E8230F0296A11DB11D23
:100E7000D2CF1F920F920FB60F9211242F933F9350
:100E80004F935F936F937F938F939F93AF93BF9392
:100E9000EF93FF938091B900887F803609F44AC0B0
:100EA000F0F5883209F4A7C018F5803109F49BC029
:100EB000B8F4882309F4F9C0883009F494C0FF918C
:100EC000EF91BF91AF919F918F917F916F915F91C2
:100ED0004F913F912F910F900FBE0F901F9018953B
:100EE000883109F488C0803251F78093CE0314C052
:100EF000803409F49DC040F48033B9F38833F9F6A7
:100F00008093CE0385ECB0C0803509F485C0883568
:100F100009F496C0883499F60E945F06D0CF8839CC
:100F200009F48CC038F5883729F050F4883611F070
:100F3000803729F683E08093D0031092A90357C02D
:100F4000883809F47BC0803919F0803809F0B7CFB0
:100F50008091A903803208F071C0E091A90381E07B
:100F60008E0F8093A9038091BB00F0E0E757FC4F00
:100F700080833DC0803B39F0E0F4803A09F479C0C9
:100F8000883A09F09CCF84E08093D00310928803C4
:100F900010928703E091FF03F0910004099580917E
:100FA000870381110FC081E080938703109267034C
:100FB00009C0803C09F4A6CF883C09F4A3CF883B44
:100FC00009F07DCFE091880381E08E0F8093880344
:100FD000F0E0E959FC4F80818093BB009091880339
:100FE0008091870329C08091AB038093BB0085EC7F
:100FF0008093BC0064CF9091CD038091CC0398176F
:1010000058F5E091CD0381E08E0F8093CD03F0E0A1
:10101000E455FC4F8081E9CFE091CD0381E08E0F54
:101020008093CD038091BB00F0E0E455FC4F8083BA
:101030009091CD038091CC039817C8F285E8D8CF62
:10104000E091CD0381E08E0F8093CD038091BB00B2
:10105000F0E0E455FC4F80838091CF0381115CCF99
:1010600081E08093AA0384EA8093BC001092D003AD
:1010700026CF85EC8093BC001092D0038091A90309
:10108000803230F4E091A903F0E0E757FC4F108282
:101090006091A90370E0E091FD03F091FE0389E8FF
:1010A00093E009951092A9030ACF1092CE0334CF92
:1010B0001F920F920FB60F921124CF92DF92EF92F0
:1010C000FF922F933F934F935F936F937F938F93F1
:1010D0009F93AF93BF93EF93FF930E94C4019091AE
:1010E0000504981328C08091420390914303A09176
:1010F0004403B09145030196A11DB11D80934203A5
:1011000090934303A0934403B0934503FF91EF9161
:10111000BF91AF919F918F917F916F915F914F910F
:101120003F912F91FF90EF90DF90CF900F900FBEE7
:101130000F901F901895813051F420913E0430910A
:101140003F042F5F3F4F30933F0420933E04809332
:10115000050480E090E0AAE7B4E480933E03909316
:101160003F03A0934003B093410360914203709109
:1011700043038091440390914503C0903E03D09077
:101180003F03E0904003F09041030E9445119B0112
:10119000AC01C701B6010E94A41060933E03709396
:1011A0003F038093400390934103109242031092B7
:1011B00043031092440310924503A8CF0F931F934B
:1011C000E0E4F4E01382128288EE93E0A0E0B0E065
:1011D00084839583A683B7832CE031E03183208319
:1011E00025EC30E03587248724EC30E037872687EC
:1011F00020EC30E0318B208B21EC30E0338B228BE4
:1012000022EC30E0358B248B26EC30E0378B268BBC
:10121000118E128E138E148EEDEDF4E01382128275
:1012200084839583A683B7838EE191E09183808345
:10123000E9EFF4E01086118612861386148615866F
:10124000168617868FB7F8940091E9041091EA0486
:101250002091EB043091EC048FBF00831183228333
:1012600033831482158216821782EDEEF4E0138226
:10127000128280E391E09183808387E2848380E11E
:10128000818782E0828713861F910F910895789459
:1012900084B5826084BD84B5816084BD85B582607B
:1012A00085BD85B5816085BD80916E00816080932C
:1012B0006E00109281008091810082608093810095
:1012C00080918100816080938100809180008160A5
:1012D000809380008091B10084608093B100809100
:1012E000B00081608093B00080917A008460809328
:1012F0007A0080917A00826080937A0080917A00EF
:10130000816080937A0080917A00806880937A006F
:101310001092C1001092040410920304109202046F
:10132000109201040E94DA020CE810E0109300040D
:101330000093FF03CDE8D0E0D093FE03C093FD03FC
:10134000E0915004F091510482E08083E0914C04DC
:10135000F0914D041082E0914E04F0914F048FEC17
:10136000808310925804E0915404F091550486E073
:101370008083E0915204F0915304808180618083E6
:10138000E0915204F0915304808188608083E09161
:101390005204F0915304808180688083E09152046C
:1013A000F091530480818F7D808367E471E080E455
:1013B00094E00E945D0610920404109203041092BF
:1013C0000204109201040E94DA02109300040093B8
:1013D000FF03D093FE03C093FD031092F2048091AB
:1013E000F704823018F098E09093F2048093F504AB
:1013F00062E370E080E090E00E9481026091F80476
:101400008DEE94E00E949F0368EE73E080E090E030
:101410000E94810260E38DEE94E00E948A04CBE496
:10142000D6E4CE010197F1F760E38DEE94E00E94DF
:101430008A042197F1F760E38DEE94E00E948A041C
:1014400083E592E00197F1F760E28DEE94E00E946F
:101450008A046091F204606240E08DEE94E00E94A4
:10146000A30484E08093F30440E06CE08DEE94E00C
:101470000E94A3040E94BA0482E08093F40440E036
:1014800066E08DEE94E00E94A30440E062E08DEE01
:1014900094E00E94A3048BE39FE10197F1F788E0B9
:1014A0008093F80460E08DEE94E00E949F0360E07A
:1014B00082E00E94160261E082E00E94E8010E9440
:1014C000C401809305048FEA87BD80916E0082601D
:1014D00080936E0061E086E00E94160261E087E082
:1014E0000E94160260E08EE00E94160260E08FE02B
:1014F0000E941602412C512C80E8682E84E4782E3C
:1015000000E010E086E591E00E94590560E871E096
:1015100080E494E00E945D0640913E0450913F04B7
:1015200070E060E02AE080E494E00E940D0568E34A
:1015300071E080E494E00E94FE0460913E047091AA
:101540003F0490E080E00E94451120E030E040EF51
:1015500050E40E94A41020E030E040E752E40E94F2
:10156000A4106B017C0120E030E040E251E40E94D5
:10157000A41029E23CE547E651E40E94FC11609387
:101580003A0470933B0480933C0490933D0469E8D3
:1015900071E080E494E00E945D06B701A60180E45A
:1015A00094E00E945A0686E991E00E94590561E0A4
:1015B00080E00E94C50469E971E08DEE94E00E942C
:1015C0005D06B701A6018DEE94E00E945A0666EA18
:1015D00071E080E494E00E945D0640913A045091ED
:1015E0003B0460913C0470913D0480E494E00E94CF
:1015F0005A0683EB91E00E94590564E670E080E0B2
:1016000090E00E94810280E10E9447029250BC015A
:10161000990F880B990B0E94471120E030E0A90137
:101620000E9433109B01AC010E94FC1120913604F2
:101630003091370440913804509139040E9433109E
:101640004B015C018092360490923704A0923804DA
:10165000B092390420E030E040E85FE3609132046A
:101660007091330480913404909135040E943310BA
:101670009B01AC0120933204309333044093340433
:1016800050933504C501B4010E94A4100E946F124A
:1016900020E030E040EC5FE30E94FC1120E030E00D
:1016A000A9010E9433104B015C0120E030E040E2D0
:1016B00051E40E949F1018160CF054C480922E041E
:1016C00090922F04A0923004B092310440912E04E5
:1016D00050912F04609130047091310422E080E435
:1016E00094E00E946C0568E371E080E494E00E945D
:1016F000FE041092360410923704109238041092AF
:10170000390410923204109233041092340410926F
:10171000350410920A0410920B0410920C041092DB
:101720000D044092060450920704609208047092DF
:101730000904CCE2D1E08FE00E944702BC01990F7E
:10174000880B990B0E9447114B015C0120910A0400
:1017500030910B0440910C0450910D040E94F7113C
:10176000181644F480920A0490920B04A0920C0480
:10177000B0920D04209106043091070440910804B2
:1017800050910904C501B4010E949F1087FF08C051
:101790008092060490920704A0920804B092090473
:1017A000219749F6209106043091070440910804DE
:1017B0005091090460910A0470910B0480910C040B
:1017C00090910D040E94321060932A0470932B04B0
:1017D00080932C0490932D042FE03BE045EB5EE3D7
:1017E0000E94FC112FE832EC45E75DE30E94FC11FA
:1017F0004B015C012DEC3CEC4CE45EE30E949F103D
:1018000087FDB9C38092260490922704A0922804F1
:10181000B092290440912604509127046091280435
:101820007091290422E080E494E00E946C0568E352
:1018300071E080E494E00E94FE0468EC70E080E0D7
:1018400090E00E94810220912E0430912F0440915B
:1018500030045091310460912604709127048091E6
:101860002804909129040E94FC112DEC3CEC4CE4DE
:101870005FE30E94FC112DEE3BED48E155E30E9431
:10188000FC1120E030E04AE754E40E94FC11209172
:1018900022043091230440912404509125040E9495
:1018A0003310609322047093230480932404909354
:1018B000250420E030E040E051E40E94FC116093F8
:1018C0001E0470931F04809320049093210489EBDD
:1018D00091E00E94590568EE71E080E494E00E9476
:1018E0005D0640912204509123046091240470917C
:1018F000250480E494E00E945A0685EF91E00E945E
:1019000059056CEF71E080E494E00E945D0640911F
:101910001E0450911F04609120047091210480E402
:1019200094E00E945A0683EB91E00E9459058EE0F4
:101930000E944702BC01990F880B990B0E94471126
:1019400020E030E040EA50E40E94FC1120E030EC5E
:101950004FE754E40E94A41020E030E048EC52E449
:101960000E94A41020911A0430911B0440911C0481
:1019700050911D040E94331060931A0470931B044D
:1019800080931C0490931D0420E030E046EE52E466
:101990000E94FC116093160470931704809318043E
:1019A0009093190482E192E00E9459056BE372E082
:1019B00080E494E00E945D0640911A0450911B045B
:1019C00060911C0470911D0480E494E00E945A060A
:1019D00084E592E00E94590568E572E080E494E0B5
:1019E0000E945D06409116045091170460911804FE
:1019F0007091190480E494E00E945A0683EB91E010
:101A00000E9459050E94BA0460E080E00E94C5046B
:101A10006DE672E08DEE94E00E945D0660ED77E089
:101A200080E090E00E9481020E94BA0460E080E0C1
:101A30000E94C5046DE772E08DEE94E00E945D06A1
:101A400060ED77E080E090E00E9481020E94BA049D
:101A500060E080E00E94C5046EE872E08DEE94E0E4
:101A60000E945D0660E087E00E94C5044091220468
:101A70005091230460912404709125048DEE94E02C
:101A80000E945A0660E08CE00E94C50465E972E09D
:101A90008DEE94E00E945D0661E080E00E94C50446
:101AA0006CEA71E08DEE94E00E945D0661E087E0F3
:101AB0000E94C50440911E0450911F0460912004AF
:101AC000709121048DEE94E00E945A0661E08CE052
:101AD0000E94C50467E972E08DEE94E00E945D0605
:101AE00068EB7BE080E090E00E9481020E94BA04F3
:101AF00060E080E00E94C5046AE972E08DEE94E047
:101B00000E945D0668EE73E080E090E00E94810232
:101B10000E94BA0460E080E00E94C50463EA72E0BB
:101B20008DEE94E00E945D0660E089E00E94C504AD
:101B300040911A0450911B0460911C0470911D0483
:101B40008DEE94E00E945A0660E08EE00E94C5048B
:101B500065E572E08DEE94E00E945D0661E080E054
:101B60000E94C5046CEA72E08DEE94E00E945D066E
:101B700061E089E00E94C504409116045091170469
:101B800060911804709119048DEE94E00E945A0639
:101B900061E08EE00E94C50467E972E08DEE94E09A
:101BA0000E945D0668EB7BE080E090E00E9481028D
:101BB0000E94BA0460E080E00E94C50465EB72E018
:101BC0008DEE94E00E945D0668EE73E080E090E0A8
:101BD0000E9481020E94BA0460E080E00E94C50475
:101BE00060EC72E08DEE94E00E945D0660E08AE0B9
:101BF0000E94C504B701A6018DEE94E00E945A062A
:101C000060E08FE00E94C50467E971E08DEE94E02A
:101C10000E945D0661E080E00E94C5046BEC72E00A
:101C20008DEE94E00E945D0661E08AE00E94C504AA
:101C300040913A0450913B0460913C0470913D0402
:101C40008DEE94E00E945A0661E08FE00E94C50488
:101C500067E972E08DEE94E00E945D0668EB7BE040
:101C600080E090E00E9481028DE692E00E9459059A
:101C70008DE792E00E94590566ED72E080E494E001
:101C80000E945D0640912204509123046091240437
:101C90007091250480E494E00E945A0685E992E060
:101CA0000E9459056CEA71E080E494E00E945D06B0
:101CB00040911E0450911F046091200470912104F2
:101CC00080E494E00E945A0687E992E00E94590558
:101CD0008AE992E00E94590563EA72E080E494E0A8
:101CE0000E945D0640911A0450911B0460911C04EF
:101CF00070911D0480E494E00E945A0685E592E00C
:101D00000E9459056BEC72E080E494E00E945D064D
:101D100040911604509117046091180470911904B1
:101D200080E494E00E945A0687E992E00E945905F7
:101D300085EB92E00E94590560EC72E080E494E04B
:101D40000E945D06B701A60180E494E00E945A0655
:101D500087E991E00E9459056CEA71E080E494E023
:101D60000E945D0640913A0450913B0460913C040E
:101D700070913D0480E494E00E945A0687E992E065
:101D80000E945905209116043091170440911804BF
:101D90005091190460913A0470913B0480913C0485
:101DA00090913D040E94331020911E0430911F0435
:101DB00040912004509121040E9433109B01AC01FA
:101DC0002093120430931304409314045093150489
:101DD00060E070E48CE995E40E94321060930E0498
:101DE00070930F0480931004909311040E94BA041E
:101DF00060E080E00E94C5046CED72E08DEE94E03E
:101E00000E945D0660E088E00E94C50440911204D3
:101E10005091130460911404709115048DEE94E0B8
:101E20000E945A0660E08FE00E94C50467E972E0F4
:101E30008DEE94E00E945D0661E080E00E94C504A2
:101E400064EE72E08DEE94E00E945D0661E088E051
:101E50000E94C50440910E0450910F04609110043B
:101E6000709111048DEE94E00E945A0661E08FE0BB
:101E70000E94C50467E972E08DEE94E00E945D0661
:101E800060EA7FE080E090E00E9481028AEF91E0CA
:101E90000E9459056CEE72E080E494E00E945D06B9
:101EA0004091120450911304609114047091150430
:101EB00080E494E00E945A0687E992E00E94590566
:101EC0008AEF91E00E94590565EF72E080E494E0AA
:101ED0000E945D0640910E0450910F046091100421
:101EE0007091110480E494E00E945A0687E992E020
:101EF0000E945905C0900E04D0900F04E090100489
:101F0000F090110420E030E44CE955E4C701B6013B
:101F10000E94F71187FD38C08EEF92E00E945905AC
:101F20000E94BA046EEF72E08DEE94E00E945D06AE
:101F300068EE73E080E090E00E94810260E086E05D
:101F40000E94E80160E087E00E94E80101151105A8
:101F500009F4D8CA0E94F800882309F4D3CA0E9461
:101F60000000D0CA10922E0410922F041092300458
:101F700010923104ABCB10922604109227041092D9
:101F800028041092290446CC20E030E44CE955E4C2
:101F9000C701B6010E949F1018162CF120E030E016
:101FA0004AEF54E4C701B6010E94F71187FD1BC038
:101FB0008DE093E00E9459050E94BA046DE073E041
:101FC0008DEE94E00E945D0660E086E00E94E801EC
:101FD00060E087E00E94E80168EE73E080E090E056
:101FE0000E948102B3CF20E030E04AEF54E4C70101
:101FF000B6010E949F101816C4F020E030E04AEFAE
:1020000053E4C701B6010E94F71187FD0EC082E2BA
:1020100093E00E9459050E94BA0462E273E08DEEDB
:1020200094E00E945D0661E0D0CF20E030E04AEF0E
:1020300053E4C701B6010E949F1018160CF486CF16
:102040008DE193E00E9459050E94BA046EE273E0AC
:102050008DEE94E00E945D0661E086E00E94E8015A
:1020600061E0B7CF5058BB27AA270E944A100C94B2
:10207000BD110E94AF1138F00E94B61120F039F462
:102080009F3F19F426F40C94AC110EF4E095E7FB95
:102090000C94A611E92F0E94CE1158F3BA176207CB
:1020A00073078407950720F079F4A6F50C94F011D6
:1020B0000EF4E0950B2EBA2FA02D0B01B901900163
:1020C0000C01CA01A0011124FF27591B99F0593FA7
:1020D00050F4503E68F11A16F040A22F232F342FEF
:1020E0004427585FF3CF469537952795A795F0403D
:1020F0005395C9F77EF41F16BA0B620B730B840B52
:10210000BAF09150A1F0FF0FBB1F661F771F881F09
:10211000C2F70EC0BA0F621F731F841F48F4879561
:1021200077956795B795F7959E3F08F0B0CF939553
:10213000880F08F09927EE0F9795879508950E94CC
:10214000821108F481E008950E94B8100C94BD112A
:102150000E94B61158F00E94AF1140F029F45F3F81
:1021600029F00C94A61151110C94F1110C94AC119E
:102170000E94CE1168F39923B1F3552391F3951B77
:10218000550BBB27AA2762177307840738F09F5F98
:102190005F4F220F331F441FAA1FA9F335D00E2E05
:1021A0003AF0E0E832D091505040E695001CCAF772
:1021B0002BD0FE2F29D0660F771F881FBB1F261735
:1021C00037074807AB07B0E809F0BB0B802DBF010C
:1021D000FF2793585F4F3AF09E3F510578F00C94DB
:1021E000A6110C94F1115F3FE4F3983ED4F3869569
:1021F00077956795B795F7959F5FC9F7880F911DFC
:102200009695879597F90895E1E0660F771F881FE7
:10221000BB1F621773078407BA0720F0621B730B9A
:10222000840BBA0BEE1F88F7E09508950E94D61133
:1022300088F09F5798F0B92F9927B751B0F0E1F087
:10224000660F771F881F991F1AF0BA95C9F714C037
:10225000B13091F00E94F011B1E008950C94F011AA
:10226000672F782F8827B85F39F0B93FCCF3869570
:1022700077956795B395D9F73EF4909580957095CD
:1022800061957F4F8F4F9F4F0895E89409C097FB4A
:102290003EF490958095709561957F4F8F4F9F4F3D
:1022A0009923A9F0F92F96E9BB279395F695879581
:1022B00077956795B795F111F8CFFAF4BB0F11F444
:1022C00060FF1BC06F5F7F4F8F4F9F4F16C08823EB
:1022D00011F096E911C0772321F09EE8872F762F21
:1022E00005C0662371F096E8862F70E060E02AF062
:1022F0009A95660F771F881FDAF7880F969587954E
:1023000097F90895990F0008550FAA0BE0E8FEEF22
:1023100016161706E807F907C0F012161306E407A9
:10232000F50798F0621B730B840B950B39F40A26A2
:1023300061F0232B242B252B21F408950A2609F480
:10234000A140A6958FEF811D811D089597F99F6784
:1023500080E870E060E008959FEF80EC089500242D
:102360000A941616170618060906089500240A94FA
:1023700012161306140605060895092E0394000C80
:1023800011F4882352F0BB0F40F4BF2B11F460FF0F
:1023900004C06F5F7F4F8F4F9F4F089557FD905838
:1023A000440F551F59F05F3F71F04795880F97FB19
:1023B000991F61F09F3F79F08795089512161306D3
:1023C0001406551FF2CF4695F1DF08C01616170602
:1023D0001806991FF1CF8695710561050894089537
:1023E000E894BB2766277727CB0197F908950E94C9
:1023F000821108F48FEF08950E940F120C94BD1102
:102400000E94AF1138F00E94B61120F0952311F010
:102410000C94A6110C94AC1111240C94F1110E948F
:10242000CE1170F3959FC1F3950F50E0551F629F39
:10243000F001729FBB27F00DB11D639FAA27F00D1D
:10244000B11DAA1F649F6627B00DA11D661F829F44
:102450002227B00DA11D621F739FB00DA11D621F29
:10246000839FA00D611D221F749F3327A00D611D46
:10247000231F849F600D211D822F762F6A2F112428
:102480009F5750409AF0F1F088234AF0EE0FFF1F5B
:10249000BB1F661F771F881F91505040A9F79E3FB2
:1024A000510580F00C94A6110C94F1115F3FE4F3F8
:1024B000983ED4F3869577956795B795F795E79508
:1024C0009F5FC1F7FE2B880F911D9695879597F911
:1024D000089519F416F40C94AC110C94B4120E94E3
:1024E000D611B8F39923C9F3B6F39F57550B87FF5D
:1024F0000E94C2120024A0E640EA9001805856953E
:10250000979528F4805C660F771F881F20F02617A8
:102510003707480730F4621B730B840B20293129DD
:102520004A2BA69517940794202531254A2758F75A
:10253000660F771F881F20F026173707480730F4EB
:10254000620B730B840B200D311D411DA09581F78B
:10255000B901842F9158880F9695879508950E9408
:102560008211880B990B08959F3F31F0915020F410
:10257000879577956795B795880F911D969587955F
:1025800097F9089591505040660F771F881FD2F732
:102590000895A1E21A2EAA1BBB1BFD010DC0AA1FA4
:1025A000BB1FEE1FFF1FA217B307E407F50720F0BC
:1025B000A21BB30BE40BF50B661F771F881F991F37
:1025C0001A9469F760957095809590959B01AC0180
:1025D000BD01CF010895EE0FFF1F0590F491E02D8E
:0625E0000994F894FFCFFE
:1025E6000000400014005400000000002E018E0080
:1025F600BB007B01EC00CA00DE0000000000700397
:102606004303870419033C0329031A03000000004F
:10261600F8048E00870486040D0A006E616E006958
:102626006E66006F766600536D6172742042696C47
:102636006C696E6721002F2F2F2F2F2F2F2F2F2FF3
:102646002F2F2F57617465722042696C6C2F2F2FC4
:102656002F2F2F2F2F2F2F2F2F2F2F2F2F2F2F00B3
:1026660050756C7365733A20005761746572205516
:102676007365643A2000204C0057617465722075BA
:102686007365643A200057617465722042696C6C08
:102696003A20002054616B61002F2F2F2F2F2F2FF0
:1026A6002F2F2F2F2F2F456C656374726963616C12
:1026B6002042696C6C2F2F2F2F2F2F2F2F2F2F2F6C
:1026C6002F2F2F2F2F2F2F00506F776572205573C6
:1026D6006564203D0020552020202000546F746141
:1026E6006C20456C6563747269632042696C6C206A
:1026F6003D002F2F2F2F2F2F2F2F2F2F2F2F2F47ED
:102706006173732042696C6C2F2F2F2F2F2F2F2F61
:102716002F2F2F2F2F2F2F2F2F2F0054686520613B
:102726006D6F756E74206F662067617320757365B3
:10273600643A2000204B670054686520746F74610A
:102746006C206761732062696C6C3A2000532E20FE
:102756005574696C6974792042696C6C00456C65C6
:1027660063747269636974792062696C6C004B5793
:1027760048203A20005500546B0047617320626977
:102786006C6C0047617320552E3A200042696C6CD0
:1027960020203A200057617465722062696C6C00D3
:1027A600576174657220552E3A200042696C6C2080
:1027B6002020203A20004B57483A2000542E204231
:1027C600696C3A00432E2042616C3A00542E204236
:1027D600696C6C3A00432E2042696C6C3A00537463
:1027E60061626C652042616C616E6365004D6F6469
:1027F600657261742042616C616E63650056657234
:1028060079204C6F772042616C616E636500566576
:0E2816007279204C2E2042616C616E63650069
:00000001FF
